:020000040000FA
:100000000C9462000C948A000C948A000C948A0070
:100010000C948A000C948A000C948A000C948A0038
:100020000C948A000C948A000C948A000C948A0028
:100030000C948A000C948A000C948A000C948A0018
:100040000C9463060C948A000C94D3060C94AD06B1
:100050000C948A000C948A000C948A000C948A00F8
:100060000C9405070C948A00000000002300260071
:10007000290000000000240027002A0000000000E2
:10008000250028002B0004040404040404040202D4
:100090000202020203030303030301020408102007
:1000A0004080010204081020010204081020000012
:1000B0000008000201000003040700000000000027
:1000C0000000240811241FBECFEFD8E0DEBFCDBF53
:1000D00011E0A0E0B1E0E4E7FDE102C005900D927F
:1000E000AA3BB107D9F723E0AAEBB1E001C01D920A
:1000F000A335B207E1F710E0C2E6D0E004C02197D3
:10010000FE010E94B20EC136D107C9F70E947A08DB
:100110000C94B80E0C940000833081F028F48130E8
:1001200099F08230A9F008958730A9F08830C9F09D
:100130008430B1F4809180008F7D03C08091800075
:100140008F7780938000089584B58F7784BD08955C
:1001500084B58F7DFBCF8091B0008F778093B00006
:1001600008958091B0008F7DF9CF1F93CF93DF93D7
:10017000282F30E0F901E255FF4F8491F901E6564E
:10018000FF4FD491F901EA57FF4FC491CC23A9F056
:10019000162F81110E948C00EC2FF0E0EE0FFF1F54
:1001A000E458FF4FA591B4918FB7F894EC911111D9
:1001B00008C0D095DE23DC938FBFDF91CF911F91D4
:1001C0000895DE2BF8CFCF93DF9390E0FC01E65645
:1001D000FF4F24918A579F4FFC0184918823C9F0D7
:1001E00090E0880F991FFC01EE58FF4FA591B49144
:1001F000FC01E458FF4FC591D49161110DC09FB728
:10020000F8948C91209582238C93888128232883CD
:100210009FBFDF91CF910895623051F49FB7F8945A
:100220003C91822F809583238C93E8812E2BEFCFF6
:100230008FB7F894EC912E2B2C938FBFEACF8E5072
:10024000806480937C0080917A00806480937A003F
:1002500080917A0086FDFCCF8091780090917900A2
:1002600008953FB7F89480918E0290918F02A091EB
:100270009002B091910226B5A89B05C02F3F19F0BE
:100280000196A11DB11D3FBFBA2FA92F982F882716
:10029000BC01CD01620F711D811D911D42E0660FF1
:1002A000771F881F991F4A95D1F708950895CF9316
:1002B000DF93AC01E0912402F09125023097F1F038
:1002C00090912302809122029817C0F090E0292F8C
:1002D00030E02617370754F4D901A654BE4F240F37
:1002E000351FE90128812C939F5FF1CF10922302E3
:1002F00060932202CB01DF91CF910994DF91CF91DE
:100300000895AF92BF92CF92DF92EF92FF920F9338
:100310001F93CF93DF936C017B018B01040F151F9B
:10032000EB015E01AE18BF08C017D10759F0699103
:10033000D601ED91FC910190F081E02DC601099567
:10034000892B79F7C501DF91CF911F910F91FF9014
:10035000EF90DF90CF90BF90AF900895FC01538D48
:10036000448D252F30E0842F90E0821B930B54178F
:1003700010F0CF96089501970895FC01918D828D1C
:10038000981761F0A28DAE0FBF2FB11D5D968C91B5
:10039000928D9F5F9F73928F90E008958FEF9FEFF4
:1003A0000895FC01918D828D981731F0828DE80FB0
:1003B000F11D858D90E008958FEF9FEF0895FC016A
:1003C000918D228D892F90E0805C9F4F821B910937
:1003D0008F739927089582E992E00E94DF0121E05E
:1003E000892B09F420E0822F089580E090E0892B8A
:1003F00029F00E94EB0181110C9400000895FC018A
:10040000A48DA80FB92FB11DA35ABF4F2C91848D75
:1004100090E001968F739927848FA689B7892C93D2
:10042000A089B1898C91837080648C93938D848D25
:10043000981306C00288F389E02D80818F7D808328
:100440000895EF92FF920F931F93CF93DF93EC01E8
:1004500081E0888F9B8D8C8D98131AC0E889F9896B
:10046000808185FF15C09FB7F894EE89FF8960836E
:10047000E889F98980818370806480839FBF81E0EF
:1004800090E0DF91CF911F910F91FF90EF90089531
:10049000F62E0B8D10E00F5F1F4F0F731127E02E0C
:1004A0008C8D8E110CC00FB607FCFACFE889F98944
:1004B000808185FFF5CFCE010E94FF01F1CFEB8D4A
:1004C000EC0FFD2FF11DE35AFF4FF0829FB7F89418
:1004D0000B8FEA89FB8980818062CFCFCF93DF9336
:1004E000EC01888D8823B9F0AA89BB89E889F9894C
:1004F0008C9185FD03C0808186FD0DC00FB607FC81
:10050000F7CF8C9185FFF2CF808185FFEDCFCE01B3
:100510000E94FF01E9CFDF91CF91089508952091C6
:10052000FB01260F3327331F21323105ECF42091D4
:100530004C02FC0190E080E0243069F082E00895F4
:10054000A091FB012191AC0145525E4FA40FB52F44
:10055000B11D2C930196861798F38091FB01680FCB
:100560006093FB0180E0089581E0089510924C02B1
:1005700081E080934B021092260261E082E10E94AA
:10058000B50061E083E10E94B500E9EBF0E0808115
:100590008E7F808380818D7F808388E48093B80004
:1005A00085E48093BC000895CF93DF9391E090930E
:1005B000DA018823B9F0C091B800D091BA008091D7
:1005C000BC008A7B8093BC0060E082E10E94B500A1
:1005D00060E083E10E94B5000E94B602D093BA00A9
:1005E000C093B800DF91CF9108950895E091230260
:1005F00080912202E81730F4F0E0E654FE4F80814B
:1006000090E008958FEF9FEF0895909123028091DD
:1006100022022FEF3FEF981748F4E92FF0E0E6545D
:10062000FE4F208130E09F5F90932302C90108951F
:100630008091220290912302891B990B0895CF92F9
:10064000DF92EF92FF920F931F93CF93DF937C0182
:10065000CB018A0120915202222389F0EB016B0128
:10066000C40ED51ECC15DD0569F06991D701ED9159
:10067000FC910190F081E02DC7010995F3CF642F23
:100680000E948F02C801DF91CF911F910F91FF90BF
:10069000EF90DF90CF900895CF93DF931F92CDB767
:1006A000DEB76983209152022223F9F0209175026E
:1006B000203258F021E030E0FC013383228390E0C7
:1006C00080E00F90DF91CF91089580915302E82F41
:1006D000F0E0EC5AFD4F998190838F5F8093530235
:1006E0008093750281E090E0ECCF61E0CE0101964D
:1006F0000E948F02F7CF90E080E00895909122024F
:10070000809123029817C9F08FE293E00E940503BD
:10071000019799F42FB7F89480918A0290918B02F7
:10072000A0918C02B0918D022FBF8093850290938F
:100730008602A0938702B09388020895FC0101907D
:100740000020E9F73197AF01481B590BBC018BE33F
:1007500093E00C9481018F929F92AF92BF920F937E
:100760001F93CF93DF93CDB7DEB7A1970FB6F89461
:10077000DEBF0FBECDBF19A2423008F44AE08E01A1
:100780000F5D1F4F842E912CB12CA12CA50194013B
:100790000E94900EE62FB901CA01EA30F4F4E05D40
:1007A000D801EE938D01232B242B252B79F790E094
:1007B00080E0109719F0CD010E949E03A1960FB61C
:1007C000F894DEBF0FBECDBFDF91CF911F910F9187
:1007D000BF90AF909F908F900895E95CE1CF0C940B
:1007E0009E03CF93DF93EC0160E08E810E94B50001
:1007F00061E08E810E94B50060E08E810E94B500AC
:100800008BE891E00197F1F7DF91CF910895CF92B6
:10081000DF92EF92FF920F931F93CF93DF936C01C0
:100820007C0187E0E80EF11CD0E0C0E0062F10E06C
:10083000B8010C2E02C0759567950A94E2F76170B5
:10084000F70181917F010E94B5002196C430D10546
:1008500079F7C601DF91CF911F910F91FF90EF9033
:10086000DF90CF900C94F103CF92DF92EF92FF9242
:100870000F931F93CF93DF93EC01F62E642F8C819F
:100880000E94B5008D818F3F19F060E00E94B50095
:100890000F2D10E08F8584FF25C06E0187E0C80E04
:1008A000D11CF12CE12CB8010E2C02C07595679576
:1008B0000A94E2F76170F60181916F010E94B50020
:1008C000FFEFEF1AFF0A88E0E816F10461F7CE01A6
:1008D000DF91CF911F910F91FF90EF90DF90CF901C
:1008E0000C94F103B80184E0759567958A95E1F75A
:1008F000CE010E9407046F2DCE01DF91CF911F9191
:100900000F91FF90EF90DF90CF900C94070440E0A0
:10091000682F8BE393E00C94340481E00E948704F9
:100920008BE39FE10197F1F70895CF93DF93813037
:1009300029F090914A03986090934A0380934E0364
:1009400010924F0380E48093500380E18093510321
:1009500080E58093520361E080913F030E94E300B1
:10096000809140038F3F19F061E00E94E30061E055
:10097000809141030E94E300CBE3D3E09E012B531F
:10098000334080914A0384FD0BC084E090E02196BF
:100990002817390744F461E08E810E94E300EECF0E
:1009A00088E090E0F4CF8BE39DE00197F1F760E001
:1009B00080913F030E94B50060E0809141030E9456
:1009C000B500809140038F3F19F060E00E94B500B0
:1009D00080914A0384FD34C063E08BE393E00E947E
:1009E0000704CBE4D6E4CE010197F1F763E08BE393
:1009F00093E00E9407042197F1F763E08BE393E013
:100A00000E94070483E592E00197F1F762E08BE32F
:100A100093E00E94070480914A0380620E94870449
:100A200084E080934B038CE00E9487040E948D0435
:100A300082E080934C0386E0DF91CF910C94870491
:100A400080620E9487048BE496E40197F1F780911D
:100A50004A0380620E94870483E592E00197F1F7E0
:100A600080914A0380620E948704D5CF90914E0303
:100A7000891710F08FEF890FE82FF0E0E55CFC4F4D
:100A8000848980680C94870441E00E94340481E0EA
:100A900090E008954F925F926F927F928F929F9213
:100AA000AF92BF92CF92DF92EF92FF920F931F937C
:100AB000CF93DF936B017C01B42EAC019B010E94AC
:100AC0008B0E8823A1F083E391E0DF91CF911F91FA
:100AD0000F91FF90EF90DF90CF90BF90AF909F90DD
:100AE0008F907F906F905F904F900C949E032601A3
:100AF0003701E89477F82FEF3FEF4FE75FE7C30147
:100B0000B2010E948B0E81110DC02FEF3FEF4FE716
:100B10005FE7C301B2010E94C10C18161CF487E301
:100B200091E0D3CF2FEF3FEF4FE75FE4C701B6016E
:100B30000E94190E18161CF48BE391E0C6CF2FEF1C
:100B40003FEF4FE75FECC701B6010E94C10C87FD84
:100B5000F3CF20E030E0A901C701B6010E94C10C2B
:100B6000D0E0C0E087FF0CC041E06DE28BE393E092
:100B70000E943404F7FAF094F7F8F094C1E0D0E062
:100B80001B2D60E070E080E09FE300E020E030E0BB
:100B900040E251E40E94C60C21E0200F01E02B1539
:100BA000A8F3A70196010E94550C4B015C010E941D
:100BB000380D6B017C010E94670D9B01AC01C501E2
:100BC000B4010E94540C4B015C014AE0C701B6011C
:100BD0000E94AB037C01219641E06EE28BE393E03F
:100BE0000E943404EC0EFD1E115018F120E030E09C
:100BF00040E251E4C501B4010E941E0E2B013C01EC
:100C00000E94380D4B01B12CA12C4AE0C501B40162
:100C10000E94AB03E80EF91EC501B4010E94670DE6
:100C20009B01AC01C301B2010E94540C4B015C0159
:100C3000DBCFC701DF91CF911F910F91FF90EF9014
:100C4000DF90CF90BF90AF909F908F907F906F90EC
:100C50005F904F90089585ED8093BC0080914E0287
:100C600090914F02A0915002B09151020796A11DA0
:100C7000B11D23E0B695A795979587952A95D1F74D
:100C80002091BC0024FD03C010924C0208954091B5
:100C90004E0250914F026091500270915102452BCB
:100CA000462B472B69F30097A105B10541F02AE2D5
:100CB0002A95F1F700C00197A109B109E1CF809110
:100CC0004D020C94D4021F920F920FB60F92112472
:100CD0002F933F938F939F93AF93BF9380918A02FB
:100CE00090918B02A0918C02B0918D02309189027B
:100CF00023E0230F2D3758F50196A11DB11D209338
:100D0000890280938A0290938B02A0938C02B09305
:100D10008D0280918E0290918F02A0919002B091ED
:100D200091020196A11DB11D80938E0290938F02B6
:100D3000A0939002B0939102BF91AF919F918F9138
:100D40003F912F910F900FBE0F901F90189526E89E
:100D5000230F0296A11DB11DD2CF1F920F920FB685
:100D60000F9211242F933F934F935F936F937F9331
:100D70008F939F93AF93BF93EF93FF9382E992E09A
:100D80000E94FF01FF91EF91BF91AF919F918F91D1
:100D90007F916F915F914F913F912F910F900FBE77
:100DA0000F901F9018951F920F920FB60F9211245B
:100DB0002F938F939F93EF93FF93E091A202F09173
:100DC000A3028081E091A802F091A90282FD1BC0DC
:100DD00090818091AB028F5F8F732091AC0282175C
:100DE00041F0E091AB02F0E0EE56FD4F958F80931D
:100DF000AB02FF91EF919F918F912F910F900FBEBA
:100E00000F901F9018958081F4CF1F920F920FB60C
:100E10000F9211242F933F934F935F936F937F9380
:100E20008F939F93AF93BF93EF93FF938091B900FC
:100E3000887F803609F44AC0F0F5883209F4A7C0EB
:100E400018F5803109F49BC0B8F4882309F4F9C07F
:100E5000883009F494C0FF91EF91BF91AF919F91B9
:100E60008F917F916F915F914F913F912F910F9053
:100E70000FBE0F901F901895883109F488C08032FA
:100E800051F780934A0214C0803409F49DC040F4A5
:100E90008033B9F38833F9F680934A0285ECB0C009
:100EA000803509F485C0883509F496C0883499F6F0
:100EB0000E942B06D0CF883909F48CC038F58837CA
:100EC00029F050F4883611F0803729F683E08093BA
:100ED0004C0210921D0257C0883809F47BC080393B
:100EE00019F0803809F0B7CF80911D02803208F0E8
:100EF00071C0E0911D0281E08E0F80931D028091F0
:100F0000BB00F0E0E350FE4F80833DC0803B39F0F2
:100F1000E0F4803A09F479C0883A09F09CCF84E083
:100F200080934C021092FC011092FB01E091200290
:100F3000F091210209958091FB0181110FC081E0A0
:100F40008093FB011092DB0109C0803C09F4A6CF1D
:100F5000883C09F4A3CF883B09F07DCFE091FC01E8
:100F600081E08E0F8093FC01F0E0E552FE4F80811E
:100F70008093BB009091FC018091FB0129C080917E
:100F800027028093BB0085EC8093BC0064CF9091D6
:100F9000490280914802981758F5E091490281E092
:100FA0008E0F80934902F0E0E85DFD4F8081E9CF2C
:100FB000E091490281E08E0F809349028091BB004D
:100FC000F0E0E85DFD4F80839091490280914802F6
:100FD0009817C8F285E8D8CFE091490281E08E0FDA
:100FE000809349028091BB00F0E0E85DFD4F808373
:100FF00080914B0281115CCF81E08093260284EACC
:101000008093BC0010924C0226CF85EC8093BC00EC
:1010100010924C0280911D02803230F4E0911D024A
:10102000F0E0E350FE4F108260911D0270E0E0910D
:101030001E02F0911F028DEF91E0099510921D02A2
:101040000ACF10924A0234CFE2E9F2E01382128210
:1010500088EE93E0A0E0B0E084839583A683B78315
:1010600027E031E03183208325EC30E03587248789
:1010700024EC30E03787268720EC30E0318B208B62
:1010800021EC30E0338B228B22EC30E0358B248B4B
:1010900026EC30E0378B268B118E128E138E148E39
:1010A000EFE2F3E01382128284839583A683B783F1
:1010B00089E191E091838083EBE3F3E01382128274
:1010C0008BE291E09183808387E084838FEF858337
:1010D0008CE086838BE087838AE0808789E0818744
:1010E00088E082871386148615861686178681E027
:1010F0000C949504CF93DF9300D000D0CDB7DEB72A
:10110000789484B5826084BD84B5816084BD85B5E2
:10111000826085BD85B5816085BD80916E008160EE
:1011200080936E0010928100809181008260809394
:101130008100809181008160809381008091800096
:101140008160809380008091B10084608093B100C1
:101150008091B00081608093B00080917A008460BB
:1011600080937A0080917A00826080937A008091E7
:101170007A00816080937A0080917A008068809301
:101180007A001092C1001092230210922202109253
:101190005302109275020E94B60286E591E0909388
:1011A00021028093200287E591E090931F028093B3
:1011B0001E0280E18093BA008EE793E090932502AF
:1011C00080932402E091A202F091A30282E0808346
:1011D000E0919E02F0919F021082E091A002F091B6
:1011E000A1028FEC80831092AA02E091A602F091F6
:1011F000A70286E08083E091A402F091A50280819D
:1012000080618083E091A402F091A50280818860D2
:101210008083E091A402F091A502808180688083A0
:10122000E091A402F091A50280818F7D808361E02E
:1012300086E00E94E30061E08DE00E94E30062E04E
:101240008EE00E94E30060E081E10E94E30061E043
:101250008DE00E94B50084E00E9495040E948D04F8
:1012600080E00E9436058FE391E00E94EF030E9428
:1012700031014B015C0120EDC22E27E0D22EE12C82
:10128000F12C0E943101681979098A099B09683E8D
:10129000734081059105A8F321E0C21AD108E10845
:1012A000F10838EE830E33E0931EA11CB11CC1146B
:1012B000D104E104F10429F790E0292E90E0392EC1
:1012C0008FB7F89480908A0290908B02A0908C0245
:1012D000B0908D028FBF8091850290918602A0917F
:1012E0008702B0918802A5019401281B390B4A0B93
:1012F0005B0BDA01C901893B9B40A105B10530F1C7
:101300008091810290918202A0918302B091840227
:10131000A5019401281B390B4A0B5B0BDA01C901AB
:10132000803D9740A105B10588F00E948D0480E0C2
:101330000E9436058CE491E00E94EF0380928102C6
:1013400090928202A0928302B09284020AE010E09E
:10135000F12CE12C81E10E941F01E80EF91E0150E1
:101360001109C1F7B701FF0C880B990B0E94690D99
:1013700020E030E040E251E40E94C60C2AE038E26E
:1013800040EA5BE30E941E0E20E030E048EC52E4AD
:101390000E941E0E6B017C018EE00E941F01BC01A9
:1013A000990F880B990B0E94690D2AE038E240EAF8
:1013B0005BE30E941E0E20E030E040E250E40E9419
:1013C000540C24EA30E74DE35EE30E94C60C6983C7
:1013D0007A838B839C838EE00E941F0120E030E0A3
:1013E00048EC52E469817A818B819C810E941E0EB7
:1013F00020E030E040E05FE30E94550C0E94380D91
:10140000762E672E60937F027093800220E030E09A
:1014100040E251E4C701B6010E941E0E20E030E018
:1014200040E05FE30E94550C0E94380D162F072FF5
:1014300060937D0270937E028091790290917A028E
:10144000A0917B02B0917C02A5019401281B390B6D
:101450004A0B5B0BDA01C901883E9340A105B10537
:1014600008F4C5C041E040935202109274021092F9
:1014700053021092750268E08FE293E00E944C03E1
:10148000662D8FE293E00E944C03672D8FE293E07C
:101490000E944C03602F8FE293E00E944C03612F67
:1014A0008FE293E00E944C0310917502113208F014
:1014B00090C00E9431012B013C0180914C028111AE
:1014C00063C052E050934C0281E080934B02EFEFF7
:1014D000E0934A021092490210934802A4E5B2E058
:1014E000E8E2F2E080E0181354C1109227028091E4
:1014F00027028093270280912602813009F04DC196
:10150000109226020E9431012B013C01809127029A
:101510008093BB0080914E0290914F02A0915002A7
:10152000B0915102892B8A2B8B2B99F00E943101AB
:1015300000914E0210914F022091500230915102C1
:1015400064197509860997090617170728073907C7
:10155000E0F18091BC0083FDD9CFF5ECF093BC00A5
:101560000E9431012B013C0180914C02823009F430
:1015700018C180914A028F3F61F180914A02803206
:1015800041F180914A0225C080914E0290914F0214
:10159000A0915002B0915102892B8A2B8B2B09F418
:1015A0008CCF0E94310120914E0230914F02409128
:1015B000500250915102641975098609970926173E
:1015C00037074807590708F078CF80914D020E94ED
:1015D000D40210925302109275021092520280921D
:1015E000790290927A02A0927B02B0927C0211E082
:1015F00024EA30E74DE75FE369817A818B819C8142
:101600000E94190E18160CF010E01093780211E0E9
:1016100020E030E040EF51E4C701B6010E94190E0E
:1016200018160CF010E010937702809181029091CF
:101630008202A0918302B0918402A5019401281B2B
:10164000390B4A0B5B0BDA01C901843F9140A105BC
:10165000B10508F45AC080910101909102010197EF
:1016600009F0C1C00E948D0480E00E9436058BE520
:1016700091E00E94EF0342E050E069817A818B8122
:101680009C810E944A0585E691E00E94EF0381E07B
:101690000E94360588E691E00E94EF0382E00E94F6
:1016A000360588E791E00E94EF0341E050E0C70172
:1016B000B6010E944A058FE791E00E94EF03109166
:1016C0007802111104C0809177028823B1F061E0A3
:1016D00086E00E94B50060E08DE00E94B5001092A7
:1016E00002011092010183E00E943605112309F4E2
:1016F000AEC082E891E00E94EF0380928102909256
:101700008202A0928302B0928402ECEBF0E084911A
:10171000E8EAF0E01491E4E9F0E0049101119FC0DF
:101720001092760280910001882309F4ADC024EA6A
:1017300030E74DE75FE369817A818B819C810E946C
:10174000C10C18160CF4A0C020E030E040EF51E4CA
:10175000C701B6010E94C10C18160CF495C081E0B7
:1017600090E0909302018093010161E08DE00E947E
:10177000B50060E086E00E94B500109278021092F9
:10178000770283E00E94360589EA91E00E94EF0328
:101790007BC09D9191938F5FA6CE25EE2093BC00D8
:1017A000DFCE80914E0290914F02A0915002B091F5
:1017B0005102892B8A2B8B2B09F4D6CE0E94310142
:1017C00000914E0210914F0220915002309151022F
:1017D0006419750986099709061717072807390735
:1017E00008F0C2CEF2CE0E948D0480E00E94360541
:1017F0008BE591E00E94EF0342E050E069817A813D
:101800008B819C810E944A0585E691E00E94EF034E
:1018100081E00E94360589E991E00E94EF0382E0B1
:101820000E94360588E791E00E94EF0341E050E016
:10183000C701B6010E944A058FE791E00E94EF03BD
:1018400083E00E94360580917802811152CF809109
:101850007702882309F451CF8FE891E04CCF8111B2
:101860000E948C00E02FF0E0EE0FFF1FE859FF4FC1
:10187000A591B4918C91182381E009F480E08093C4
:101880007602112309F44ECF8091760280930001F5
:101890002114310409F414CD0E94EB01882309F4CA
:1018A0000FCD0E9400000CCD5058BB27AA270E94E4
:1018B0006C0C0C94DF0D0E94D10D38F00E94D80DF5
:1018C00020F039F49F3F19F426F40C94CE0D0EF459
:1018D000E095E7FB0C94C80DE92F0E94F00D58F33A
:1018E000BA17620773078407950720F079F4A6F505
:1018F0000C94120E0EF4E0950B2EBA2FA02D0B01B6
:10190000B90190010C01CA01A0011124FF27591B44
:1019100099F0593F50F4503E68F11A16F040A22F4A
:10192000232F342F4427585FF3CF469537952795BB
:10193000A795F0405395C9F77EF41F16BA0B620BBA
:10194000730B840BBAF09150A1F0FF0FBB1F661F01
:10195000771F881FC2F70EC0BA0F621F731F841F44
:1019600048F4879577956795B795F7959E3F08F06A
:10197000B0CF9395880F08F09927EE0F979587952C
:1019800008950E94A40D08F481E008950E94DA0CE5
:101990000C94DF0D0E94D80D58F00E94D10D40F03C
:1019A00029F45F3F29F00C94C80D51110C94130ECB
:1019B0000C94CE0D0E94F00D68F39923B1F35523DA
:1019C00091F3951B550BBB27AA2762177307840752
:1019D00038F09F5F5F4F220F331F441FAA1FA9F3E8
:1019E00035D00E2E3AF0E0E832D091505040E695D6
:1019F000001CCAF72BD0FE2F29D0660F771F881F37
:101A0000BB1F261737074807AB07B0E809F0BB0B29
:101A1000802DBF01FF2793585F4F3AF09E3F51053D
:101A200078F00C94C80D0C94130E5F3FE4F3983ECD
:101A3000D4F3869577956795B795F7959F5FC9F726
:101A4000880F911D9695879597F90895E1E0660FA7
:101A5000771F881FBB1F621773078407BA0720F020
:101A6000621B730B840BBA0BEE1F88F7E095089589
:101A70000E94F80D88F09F5798F0B92F9927B75119
:101A8000B0F0E1F0660F771F881F991F1AF0BA9522
:101A9000C9F714C0B13091F00E94120EB1E0089560
:101AA0000C94120E672F782F8827B85F39F0B93F52
:101AB000CCF3869577956795B395D9F73EF49095D5
:101AC0008095709561957F4F8F4F9F4F0895E89453
:101AD00009C097FB3EF490958095709561957F4F76
:101AE0008F4F9F4F9923A9F0F92F96E9BB27939524
:101AF000F695879577956795B795F111F8CFFAF434
:101B0000BB0F11F460FF1BC06F5F7F4F8F4F9F4F64
:101B100016C0882311F096E911C0772321F09EE8C2
:101B2000872F762F05C0662371F096E8862F70E028
:101B300060E02AF09A95660F771F881FDAF7880F02
:101B40009695879597F90895990F0008550FAA0B58
:101B5000E0E8FEEF16161706E807F907C0F01216C0
:101B60001306E407F50798F0621B730B840B950BC3
:101B700039F40A2661F0232B242B252B21F4089518
:101B80000A2609F4A140A6958FEF811D811D0895B5
:101B900097F99F6780E870E060E008959FEF80EC20
:101BA000089500240A9416161706180609060895C3
:101BB00000240A9412161306140605060895092E29
:101BC0000394000C11F4882352F0BB0F40F4BF2B98
:101BD00011F460FF04C06F5F7F4F8F4F9F4F0895D8
:101BE00057FD9058440F551F59F05F3F71F04795CE
:101BF000880F97FB991F61F09F3F79F087950895B3
:101C0000121613061406551FF2CF4695F1DF08C0D1
:101C1000161617061806991FF1CF869571056105EE
:101C200008940895E894BB2766277727CB0197F996
:101C300008950E94A40D08F48FEF08950E94310EBC
:101C40000C94DF0D0E94D10D38F00E94D80D20F0C9
:101C5000952311F00C94C80D0C94CE0D11240C9406
:101C6000130E0E94F00D70F3959FC1F3950F50E095
:101C7000551F629FF001729FBB27F00DB11D639F3E
:101C8000AA27F00DB11DAA1F649F6627B00DA11DE4
:101C9000661F829F2227B00DA11D621F739FB00D8A
:101CA000A11D621F839FA00D611D221F749F3327FA
:101CB000A00D611D231F849F600D211D822F762F93
:101CC0006A2F11249F5750409AF0F1F088234AF070
:101CD000EE0FFF1FBB1F661F771F881F91505040DC
:101CE000A9F79E3F510580F00C94C80D0C94130E7B
:101CF0005F3FE4F3983ED4F3869577956795B79563
:101D0000F795E7959F5FC1F7FE2B880F911D96957C
:101D1000879597F908950E94A40D880B990B089553
:101D2000A1E21A2EAA1BBB1BFD010DC0AA1FBB1FDF
:101D3000EE1FFF1FA217B307E407F50720F0A21B51
:101D4000B30BE40BF50B661F771F881F991F1A94BE
:101D500069F760957095809590959B01AC01BD01E8
:101D6000CF010895EE0FFF1F0590F491E02D099427
:101D7000F894FFCF0101000000000021028101AEB4
:101D8000016E02DF01BD01D101000000004C031F04
:101D9000037B03F50218030503F60200000000446C
:101DA0000581017B038E026E616E00696E66006FB5
:101DB00076660053797374656D20526561647900AD
:101DC0004D6173746572204F66666C696E65004381
:101DD000757272656E743A200020410053797374F5
:101DE000656D3A2052554E4E494E470054656D7010
:101DF0003A20002043004F76657263757272656EFB
:101E00007421004F7665726865617421005379739F
:101E100074656D3A2053544F5050454400202020A3
:0E1E2000202020202020202020202020200014
:107E0000112484B714BE81FFF0D085E080938100F7
:107E100082E08093C00088E18093C10086E0809377
:107E2000C20080E18093C4008EE0C9D0259A86E02C
:107E300020E33CEF91E0309385002093840096BBD3
:107E4000B09BFECF1D9AA8958150A9F7CC24DD24C4
:107E500088248394B5E0AB2EA1E19A2EF3E0BF2EE7
:107E6000A2D0813461F49FD0082FAFD0023811F036
:107E7000013811F484E001C083E08DD089C08234E0
:107E800011F484E103C0853419F485E0A6D080C0E4
:107E9000853579F488D0E82EFF2485D0082F10E0AE
:107EA000102F00270E291F29000F111F8ED06801E7
:107EB0006FC0863521F484E090D080E0DECF843638
:107EC00009F040C070D06FD0082F6DD080E0C81688
:107ED00080E7D80618F4F601B7BEE895C0E0D1E017
:107EE00062D089930C17E1F7F0E0CF16F0E7DF06D8
:107EF00018F0F601B7BEE89568D007B600FCFDCFD4
:107F0000A601A0E0B1E02C9130E011968C91119780
:107F100090E0982F8827822B932B1296FA010C0160
:107F200087BEE89511244E5F5F4FF1E0A038BF0790
:107F300051F7F601A7BEE89507B600FCFDCF97BE46
:107F4000E89526C08437B1F42ED02DD0F82E2BD052
:107F50003CD0F601EF2C8F010F5F1F4F84911BD097
:107F6000EA94F801C1F70894C11CD11CFA94CF0C13
:107F7000D11C0EC0853739F428D08EE10CD085E9AC
:107F80000AD08FE07ACF813511F488E018D01DD067
:107F900080E101D065CF982F8091C00085FFFCCF94
:107FA0009093C60008958091C00087FFFCCF809118
:107FB000C00084FD01C0A8958091C6000895E0E648
:107FC000F0E098E1908380830895EDDF803219F02E
:107FD00088E0F5DFFFCF84E1DECF1F93182FE3DFCA
:107FE0001150E9F7F2DF1F91089580E0E8DFEE27F6
:047FF000FF270994CA
:027FFE00040479
:00000001FF
