:100000000C9462000C948A000C948A000C948A0070
:100010000C948A000C948A000C948A000C948A0038
:100020000C948A000C948A000C948A000C948A0028
:100030000C948A000C948A000C948A000C948A0018
:100040000C947B070C948A000C94EB070C94C50766
:100050000C948A000C948A000C948A000C948A00F8
:100060000C941D080C948A00000000002300260058
:10007000290000000000240027002A0000000000E2
:10008000250028002B0004040404040404040202D4
:100090000202020203030303030301020408102007
:1000A0004080010204081020010204081020000012
:1000B0000008000201000003040700000000000027
:1000C00000003C0911241FBECFEFD8E0DEBFCDBF3A
:1000D00011E0A0E0B1E0EAEBFDE102C005900D9275
:1000E000AC3BB107D9F723E0ACEBB1E001C01D9206
:1000F000A235B207E1F710E0C2E6D0E004C02197D4
:10010000FE010E94D50EC136D107C9F70E9492099F
:100110000C94DB0E0C940000833081F028F48130C5
:1001200099F08230A9F008958730A9F08830C9F09D
:100130008430B1F4809180008F7D03C08091800075
:100140008F7780938000089584B58F7784BD08955C
:1001500084B58F7DFBCF8091B0008F778093B00006
:1001600008958091B0008F7DF9CF1F93CF93DF93D7
:10017000282F30E0F901E255FF4F8491F901E6564E
:10018000FF4FD491F901EA57FF4FC491CC23A9F056
:10019000162F81110E948C00EC2FF0E0EE0FFF1F54
:1001A000E458FF4FA591B4918FB7F894EC911111D9
:1001B00008C0D095DE23DC938FBFDF91CF911F91D4
:1001C0000895DE2BF8CFCF93DF9390E0FC01E65645
:1001D000FF4F24918A579F4FFC0184918823C9F0D7
:1001E00090E0880F991FFC01EE58FF4FA591B49144
:1001F000FC01E458FF4FC591D49161110DC09FB728
:10020000F8948C91209582238C93888128232883CD
:100210009FBFDF91CF910895623051F49FB7F8945A
:100220003C91822F809583238C93E8812E2BEFCFF6
:100230008FB7F894EC912E2B2C938FBFEACF8E5072
:10024000806480937C0080917A00806480937A003F
:1002500080917A0086FDFCCF8091780090917900A2
:1002600008953FB7F89480913D0290913E02A0918D
:100270003F02B091400226B5A89B05C02F3F19F060
:100280000196A11DB11D3FBFBA2FA92F982F882716
:10029000BC01CD01620F711D811D911D42E0660FF1
:1002A000771F881F991F4A95D1F708958F929F92C3
:1002B000AF92BF92CF92DF92EF92FF924B015C011F
:1002C0000E9431016B017C010E9431016C197D0992
:1002D0008E099F09683E734081059105A8F321E0CE
:1002E000821A9108A108B10888EEC80E83E0D81ED2
:1002F000E11CF11C81149104A104B10429F7FF90C1
:10030000EF90DF90CF90BF90AF909F908F90089527
:100310000895CF93DF93AC01E0912602F09127027C
:100320003097F1F090912502809124029817C0F047
:1003300090E0292F30E02617370754F4D901A45450
:10034000BE4F240F351FE90128812C939F5FF1CF09
:100350001092250260932402CB01DF91CF91099482
:10036000DF91CF910895AF92BF92CF92DF92EF923B
:10037000FF920F931F93CF93DF936C017B018B014F
:10038000040F151FEB015E01AE18BF08C017D1079F
:1003900059F06991D601ED91FC910190F081E02D29
:1003A000C6010995892B79F7C501DF91CF911F917E
:1003B0000F91FF90EF90DF90CF90BF90AF90089596
:1003C000FC01538D448D252F30E0842F90E0821B5B
:1003D000930B541710F0CF96089501970895FC01E0
:1003E000918D828D981761F0A28DAE0FBF2FB11D38
:1003F0005D968C91928D9F5F9F73928F90E0089590
:100400008FEF9FEF0895FC01918D828D981731F049
:10041000828DE80FF11D858D90E008958FEF9FEF9D
:100420000895FC01918D228D892F90E0805C9F4F73
:10043000821B91098F739927089581E992E00E94A8
:10044000110221E0892B09F420E0822F089580E039
:1004500090E0892B29F00E941D0281110C9400006C
:100460000895FC01A48DA80FB92FB11DA35ABF4F49
:100470002C91848D90E001968F739927848FA689A3
:10048000B7892C93A089B1898C91837080648C93F7
:10049000938D848D981306C00288F389E02D8081A6
:1004A0008F7D80830895EF92FF920F931F93CF93D8
:1004B000DF93EC0181E0888F9B8D8C8D98131AC09F
:1004C000E889F989808185FF15C09FB7F894EE8986
:1004D000FF896083E889F9898081837080648083E3
:1004E0009FBF81E090E0DF91CF911F910F91FF902E
:1004F000EF900895F62E0B8D10E00F5F1F4F0F73D6
:100500001127E02E8C8D8E110CC00FB607FCFACF90
:10051000E889F989808185FFF5CFCE010E943102FB
:10052000F1CFEB8DEC0FFD2FF11DE35AFF4FF08261
:100530009FB7F8940B8FEA89FB8980818062CFCFC7
:10054000CF93DF93EC01888D8823B9F0AA89BB890A
:10055000E889F9898C9185FD03C0808186FD0DC0F5
:100560000FB607FCF7CF8C9185FFF2CF808185FF16
:10057000EDCFCE010E943102E9CFDF91CF910895F6
:1005800008952091FD01260F3327331F21323105B5
:10059000ECF420916702FC0190E080E0243069F0E7
:1005A00082E00895A091FD012191AC0143525E4F7C
:1005B000A40FB52FB11D2C930196861798F3809147
:1005C000FD01680F6093FD0180E0089581E00895CA
:1005D0001092670281E0809366021092410261E00E
:1005E00082E10E94B50061E083E10E94B500E9EB81
:1005F000F0E080818E7F808380818D7F808388E49E
:100600008093B80085E48093BC000895CF93DF9376
:1006100091E09093DC018823B9F0C091B800D091AB
:10062000BA008091BC008A7B8093BC0060E082E1CC
:100630000E94B50060E083E10E94B5000E94E802DC
:10064000D093BA00C093B800DF91CF910895CF92B4
:10065000DF92EF92FF920F931F93CF93DF93D0918E
:10066000900281E0D13208F09CC0C0918F020E94BC
:1006700031016B017C018091670281116CC082E0C5
:100680008093670281E0809366028FEF809365021A
:1006900010926402D0936302AFE6B2E0E3E4F2E0CA
:1006A00080E0D8138DC01092420280914202CC0F9C
:1006B000C82BC093420280914102813009F084C06E
:1006C000109241020E9431016B017C018091420233
:1006D0008093BB008091690290916A02A0916B02A5
:1006E000B0916C02892B8A2B8B2BA1F00E943101D7
:1006F0000091690210916A0220916B0230916C02A4
:100700006C197D098E099F090617170728073907F5
:1007100008F442C08091BC0083FDD8CF85EC809363
:10072000BC000E9431016B017C0180916702823024
:1007300009F44CC0809165028F3F09F469C0809133
:100740006502803209F466C080916502803309F445
:1007500063C084E026C08091690290916A02A091F2
:100760006B02B0916C02892B8A2B8B2B09F483CFFF
:100770000E9431010091690210916A0220916B027E
:1007800030916C026C197D098E099F0906171707B5
:100790002807390708F06FCF809168020E9406038E
:1007A00085E010926E021092900210926D02DF911D
:1007B000CF911F910F91FF90EF90DF90CF90089510
:1007C0009D9191938F5F6DCF85EEA9CF8091690246
:1007D00090916A02A0916B02B0916C02892B8A2BD6
:1007E0008B2B09F4A2CF0E94310100916902109174
:1007F0006A0220916B0230916C026C197D098E099E
:100800009F09061717072807390708F08ECFC4CFAE
:1008100080E0C7CF82E0C5CF83E0C3CF0895E091E9
:10082000250280912402E81730F4F0E0E454FE4FF2
:10083000808190E008958FEF9FEF089590912502B9
:10084000809124022FEF3FEF981748F4E92FF0E052
:10085000E454FE4F208130E09F5F90932502C90150
:1008600008958091240290912502891B990B089587
:10087000CF92DF92EF92FF920F931F93CF93DF936C
:100880007C01CB018A0120916D02222389F0EB01CA
:100890006B01C40ED51ECC15DD0569F06991D70139
:1008A000ED91FC910190F081E02DC7010995F3CF06
:1008B000642F0E94C102C801DF91CF911F910F9157
:1008C000FF90EF90DF90CF900895CF93DF931F922A
:1008D000CDB7DEB7698320916D022223F9F0209114
:1008E0009002203258F021E030E0FC013383228373
:1008F00090E080E00F90DF91CF91089580916E029B
:10090000E82FF0E0E159FD4F998190838F5F80934C
:100910006E028093900281E090E0ECCF61E0CE0126
:1009200001960E94C102F7CF90E080E00895909177
:100930002402809125029817D9F08EE293E00E945C
:100940001E040197A9F42FB7F89480913902909171
:100950003A02A0913B02B0913C022FBF8093340237
:1009600090933502A0933602B0933702109233026F
:100970000895FC0101900020E9F73197AF01481B71
:10098000590BBC018AE393E00C94B3018F929F92C0
:10099000AF92BF920F931F93CF93DF93CDB7DEB784
:1009A000A1970FB6F894DEBF0FBECDBF19A242309B
:1009B00008F44AE08E010F5D1F4F842E912CB12C5C
:1009C000A12CA50194010E94B30EE62FB901CA0122
:1009D000EA30F4F4E05DD801EE938D01232B242B53
:1009E000252B79F790E080E0109719F0CD010E9457
:1009F000B904A1960FB6F894DEBF0FBECDBFDF914C
:100A0000CF911F910F91BF90AF909F908F900895BD
:100A1000E95CE1CF0C94B904CF93DF93EC0160E083
:100A20008E810E94B50061E08E810E94B50060E079
:100A30008E810E94B5008BE891E00197F1F7DF917C
:100A4000CF910895CF92DF92EF92FF920F931F9371
:100A5000CF93DF936C017C0187E0E80EF11CD0E0BE
:100A6000C0E0062F10E0B8010C2E02C07595679506
:100A70000A94E2F76170F70181917F010E94B5004D
:100A80002196C430D10579F7C601DF91CF911F912E
:100A90000F91FF90EF90DF90CF900C940C05CF92C8
:100AA000DF92EF92FF920F931F93CF93DF93EC01AE
:100AB000F62E642F8C810E94B5008D818F3F19F036
:100AC00060E00E94B5000F2D10E08F8584FF25C0E7
:100AD0006E0187E0C80ED11CF12CE12CB8010E2C60
:100AE00002C0759567950A94E2F76170F6018191ED
:100AF0006F010E94B500FFEFEF1AFF0A88E0E816C9
:100B0000F10461F7CE01DF91CF911F910F91FF901A
:100B1000EF90DF90CF900C940C05B80184E07595B0
:100B200067958A95E1F7CE010E9422056F2DCE01CF
:100B3000DF91CF911F910F91FF90EF90DF90CF90B9
:100B40000C94220540E0682F8AE393E00C944F0553
:100B500081E00E94A2058BE39FE10197F1F70895E0
:100B6000CF93DF93813029F090914903986090935F
:100B7000490380934D0310924E0380E480934F030A
:100B800080E18093500380E58093510361E0809180
:100B90003E030E94E30080913F038F3F19F061E024
:100BA0000E94E30061E0809140030E94E300CAE3F9
:100BB000D3E09E012A5333408091490384FD0BC04A
:100BC00084E090E021962817390744F461E08E8193
:100BD0000E94E300EECF88E090E0F4CF8BE39DE04D
:100BE0000197F1F760E080913E030E94B50060E05C
:100BF000809140030E94B50080913F038F3F19F020
:100C000060E00E94B5008091490384FD34C063E038
:100C10008AE393E00E942205CBE4D6E4CE0101975B
:100C2000F1F763E08AE393E00E9422052197F1F750
:100C300063E08AE393E00E94220583E592E0019756
:100C4000F1F762E08AE393E00E9422058091490374
:100C500080620E94A20584E080934A038CE00E9497
:100C6000A2050E94A80582E080934B0386E0DF91F5
:100C7000CF910C94A20580620E94A2058BE496E4B9
:100C80000197F1F78091490380620E94A20583E5F4
:100C900092E00197F1F78091490380620E94A205DA
:100CA000D5CF90914D03891710F08FEF890FE82F62
:100CB000F0E0E65CFC4F848980680C94A20541E07A
:100CC0000E944F0581E090E008954F925F926F92ED
:100CD0007F928F929F92AF92BF92CF92DF92EF92CC
:100CE000FF920F931F93CF936B017C01742EAC0185
:100CF0009B010E94AE0E882399F083E391E0CF918F
:100D00001F910F91FF90EF90DF90CF90BF90AF9029
:100D10009F908F907F906F905F904F900C94B9044C
:100D200046015701E894B7F82FEF3FEF4FE75FE731
:100D3000C501B4010E94AE0E81110DC02FEF3FEF2F
:100D40004FE75FE7C501B4010E94E40C18161CF4DC
:100D500087E391E0D4CF2FEF3FEF4FE75FE4C70188
:100D6000B6010E943C0E18161CF48BE391E0C7CF2D
:100D70002FEF3FEF4FE75FECC701B6010E94E40C95
:100D800087FDF3CF20E030E0A901C701B6010E9442
:100D9000E40C10E000E087FF0CC041E06DE28AE364
:100DA00093E00E944F05F7FAF094F7F8F09401E011
:100DB00010E0C0E060E070E080E09FE37C1641F06E
:100DC00020E030E040E251E40E94E90CCF5FF6CF32
:100DD000A70196010E94780C4B015C010E945B0DFB
:100DE0002B013C014AE00E94C604080F191FCC23C6
:100DF000C9F1C301B2010E948A0D9B01AC01C5017A
:100E0000B4010E94770C4B015C0141E06EE28AE381
:100E100093E00E944F050F5F1F4FC15018F120E073
:100E200030E040E251E4C501B4010E94410E2B01C3
:100E30003C010E945B0D4B01B12CA12C4AE0C50185
:100E4000B4010E94C604080F191FC501B4010E9415
:100E50008A0D9B01AC01C301B2010E94770C4B01CA
:100E60005C01DBCFC801CF911F910F91FF90EF90F4
:100E7000DF90CF90BF90AF909F908F907F906F90BA
:100E80005F904F90089585ED8093BC00809169023A
:100E900090916A02A0916B02B0916C020796A11D1D
:100EA000B11D23E0B695A795979587952A95D1F71B
:100EB0002091BC0024FD03C0109267020895409168
:100EC000690250916A0260916B0270916C02452B2D
:100ED000462B472B69F30097A105B10541F02AE2A3
:100EE0002A95F1F700C00197A109B109E1CF8091DE
:100EF00068020C9406031F920F920FB60F921124F2
:100F00002F933F938F939F93AF93BF938091390219
:100F100090913A02A0913B02B0913C02309138028C
:100F200023E0230F2D3758F50196A11DB11D209305
:100F300038028093390290933A02A0933B02B09317
:100F40003C0280913D0290913E02A0913F02B091FF
:100F500040020196A11DB11D80933D0290933E0277
:100F6000A0933F02B0934002BF91AF919F918F91A8
:100F70003F912F910F900FBE0F901F90189526E86C
:100F8000230F0296A11DB11DD2CF1F920F920FB653
:100F90000F9211242F933F934F935F936F937F93FF
:100FA0008F939F93AF93BF93EF93FF9381E992E069
:100FB0000E943102FF91EF91BF91AF919F918F916C
:100FC0007F916F915F914F913F912F910F900FBE45
:100FD0000F901F9018951F920F920FB60F92112429
:100FE0002F938F939F93EF93FF93E091A102F09142
:100FF000A2028081E091A702F091A80282FD1BC0AD
:1010000090818091AA028F5F8F732091AB0282172B
:1010100041F0E091AA02F0E0EF56FD4F958F8093EA
:10102000AA02FF91EF919F918F912F910F900FBE88
:101030000F901F9018958081F4CF1F920F920FB6DA
:101040000F9211242F933F934F935F936F937F934E
:101050008F939F93AF93BF93EF93FF938091B900CA
:10106000887F803609F44AC0F0F5883209F4A7C0B9
:1010700018F5803109F49BC0B8F4882309F4F9C04D
:10108000883009F494C0FF91EF91BF91AF919F9187
:101090008F917F916F915F914F913F912F910F9021
:1010A0000FBE0F901F901895883109F488C08032C8
:1010B00051F78093650214C0803409F49DC040F458
:1010C0008033B9F38833F9F68093650285ECB0C0BC
:1010D000803509F485C0883509F496C0883499F6BE
:1010E0000E944307D0CF883909F48CC038F588377F
:1010F00029F050F4883611F0803729F683E0809388
:10110000670210921F0257C0883809F47BC08039EB
:1011100019F0803809F0B7CF80911F02803208F0B3
:1011200071C0E0911F0281E08E0F80931F028091B9
:10113000BB00F0E0E150FE4F80833DC0803B39F0C2
:10114000E0F4803A09F479C0883A09F09CCF84E051
:10115000809367021092FE011092FD01E09122023D
:10116000F091230209958091FD0181110FC081E06A
:101170008093FD011092DD0109C0803C09F4A6CFE7
:10118000883C09F4A3CF883B09F07DCFE091FE01B4
:1011900081E08E0F8093FE01F0E0E352FE4F8081EC
:1011A0008093BB009091FE018091FD0129C0809148
:1011B00042028093BB0085EC8093BC0064CF909189
:1011C000640280916302981758F5E091640281E00F
:1011D0008E0F80936402F0E0ED5BFD4F8081E9CFDC
:1011E000E091640281E08E0F809364028091BB00E5
:1011F000F0E0ED5BFD4F808390916402809163028B
:101200009817C8F285E8D8CFE091640281E08E0F8C
:10121000809364028091BB00F0E0ED5BFD4F808322
:101220008091660281115CCF81E08093410284EA63
:101230008093BC001092670226CF85EC8093BC009F
:101240001092670280911F02803230F4E0911F02F9
:10125000F0E0E150FE4F108260911F0270E0E091DB
:101260002002F09121028FEF91E0099510921F0268
:101270000ACF1092650234CFE1E9F2E013821282C4
:1012800088EE93E0A0E0B0E084839583A683B783E3
:1012900027E031E03183208325EC30E03587248757
:1012A00024EC30E03787268720EC30E0318B208B30
:1012B00021EC30E0338B228B22EC30E0358B248B19
:1012C00026EC30E0378B268B118E128E138E148E07
:1012D000EEE2F3E01382128284839583A683B783C0
:1012E00089E191E091838083EAE3F3E01382128243
:1012F0008BE291E09183808387E084838FEF858305
:101300008CE086838BE087838AE0808789E0818711
:1013100088E082871386148615861686178681E0F4
:101320000C94B005789484B5826084BD84B58160E6
:1013300084BD85B5826085BD85B5816085BD8091A0
:101340006E00816080936E00109281008091810018
:101350008260809381008091810081608093810010
:10136000809180008160809380008091B1008460D2
:101370008093B1008091B00081608093B000809133
:101380007A00846080937A0080917A0082608093F2
:101390007A0080917A00816080937A0080917A004F
:1013A000806880937A001092C100109225021092FA
:1013B000240210926E02109290020E94E80288E8C5
:1013C00091E0909323028093220289E891E0909328
:1013D00021028093200282E18093BA0087E994E0A1
:1013E0009093270280932602E091A102F091A2023D
:1013F00082E08083E0919D02F0919E021082E09154
:101400009F02F091A0028FEC80831092A902E091DC
:10141000A502F091A60286E08083E091A302F091FC
:10142000A402808180618083E091A302F091A402F4
:10143000808188608083E091A302F091A402808182
:1014400080688083E091A302F091A40280818F7D67
:10145000808361E086E00E94E30061E08DE00E940D
:10146000E30062E08EE00E94E30060E081E10E9420
:10147000E30061E08DE00E94B50084E00E94B005C9
:101480000E94A80580E00E9451068FE391E00E942F
:101490000A0560ED77E080E090E00E945601C1E02F
:1014A000D8E08FB7F8944090390250903A0260909B
:1014B0003B0270903C028FBF8091340290913502C4
:1014C000A0913602B0913702A3019201281B390B7B
:1014D0004A0B5B0BDA01C901893B9B40A105B105B1
:1014E000B8F080913302811113C0C09333020E947F
:1014F000A80580E00E9451068CE491E00E940A0554
:1015000060ED77E080E090E00E9456010E94A8051F
:10151000809133028823F9F0C0936D0249E0409333
:101520008F0210926E021092900261E08EE293E0C0
:101530000E9465040E942703C0936D02D0938F021E
:1015400010926E021092900261E08EE293E00E948F
:1015500065040E9427030AE010E0F12CE12C81E1F0
:101560000E941F01E80EF91E6AE070E080E090E042
:101570000E9456010150110991F7B701FF0C880B29
:10158000990B0E948C0D20E030E040E251E40E9473
:10159000E90C2AE038E240EA5BE30E94410E20E0D9
:1015A00030E048EC52E40E94410E6B017C018EE079
:1015B0000E941F01BC01990F880B990B0E948C0D92
:1015C0002AE038E240EA5BE30E94410E20E030E08E
:1015D00040E250E40E94770C24EA30E74DE35EE3FA
:1015E0000E94E90C4B015C018EE00E941F0120E08B
:1015F00030E048EC52E4C501B4010E94410E20E005
:1016000030E040E05FE30E94780C0E945B0D362ED4
:10161000272E609331027093320220E030E040E2E6
:1016200051E4C701B6010E94410E20E030E040E0E5
:101630005FE30E94780C0E945B0D162F072F6093CA
:101640002F027093300280912B0290912C02A09176
:101650002D02B0912E02A3019201281B390B4A0BD7
:101660005B0BDA01C901883E9340A105B10558F131
:10167000C0936D0210928F0210926E02109290022F
:1016800069E08EE293E00E946504622D8EE293E0B1
:101690000E946504632D8EE293E00E946504602F32
:1016A0008EE293E00E946504612F8EE293E00E9437
:1016B00065040E94270340922B0250922C026092F4
:1016C0002D0270922E0211E024EA30E74DE75FE32D
:1016D000C501B4010E943C0E18160CF010E01093E6
:1016E0002A0211E020E030E040EF51E4C701B601EA
:1016F0000E943C0E18160CF010E010932902809105
:10170000010190910201019709F08DC00E94A80586
:1017100080E00E9451068DE591E00E940A0542E0BA
:10172000C501B4010E94650687E691E00E940A05A2
:1017300081E00E9451068AE691E00E940A0582E05B
:101740000E9451068AE791E00E940A0541E0C70124
:10175000B6010E94650681E891E00E940A05109199
:101760002A02111104C0809129028823B1F061E09E
:1017700086E00E94B50060E08DE00E94B500109206
:1017800002011092010183E00E945106112309F425
:101790007AC084E891E00E940A05ECEBF0E08491C5
:1017A000E8EAF0E01491E4E9F0E00491011173C07B
:1017B0001092280280910001882309F481C024EA54
:1017C00030E74DE75FE3C501B4010E94E40C181651
:1017D0001CF120E030E040EF51E4C701B6010E9467
:1017E000E40C1816CCF021E030E030930201209395
:1017F000010161E08DE00E94B50060E086E00E949A
:10180000B50010922A021092290283E00E9451062C
:101810008BEA91E00E940A0562E370E080E090E0CC
:101820000E9456014DC00E94A80580E00E9451060A
:101830008DE591E00E940A0542E0C501B4010E94D5
:10184000650687E691E00E940A0581E00E94510644
:101850008BE991E00E940A0582E00E9451068AE726
:1018600091E00E940A0541E0C701B6010E946506A9
:1018700081E891E00E940A0583E00E945106809170
:101880002A02811186CF80912902882309F485CF0D
:1018900081E991E080CF81110E948C00E02FF0E07F
:1018A000EE0FFF1FE859FF4FA591B4918C911823BB
:1018B00081E009F480E080932802112309F47ACFB3
:1018C000809128028093000164E670E080E090E05F
:1018D0000E94560140E050E0452B09F4E2CD0E9401
:1018E0001D02882309F4DDCD0E940000DACD505896
:1018F000BB27AA270E948F0C0C94020E0E94F40DA5
:1019000038F00E94FB0D20F039F49F3F19F426F4C3
:101910000C94F10D0EF4E095E7FB0C94EB0DE92F20
:101920000E94130E58F3BA176207730784079507CE
:1019300020F079F4A6F50C94350E0EF4E0950B2EFC
:10194000BA2FA02D0B01B90190010C01CA01A00111
:101950001124FF27591B99F0593F50F4503E68F16C
:101960001A16F040A22F232F342F4427585FF3CFAD
:10197000469537952795A795F0405395C9F77EF47E
:101980001F16BA0B620B730B840BBAF09150A1F0C7
:10199000FF0FBB1F661F771F881FC2F70EC0BA0F4D
:1019A000621F731F841F48F4879577956795B795D5
:1019B000F7959E3F08F0B0CF9395880F08F09927D0
:1019C000EE0F9795879508950E94C70D08F481E062
:1019D00008950E94FD0C0C94020E0E94FB0D58F01D
:1019E0000E94F40D40F029F45F3F29F00C94EB0DB8
:1019F00051110C94360E0C94F10D0E94130E68F3E5
:101A00009923B1F3552391F3951B550BBB27AA27B7
:101A100062177307840738F09F5F5F4F220F331FF1
:101A2000441FAA1FA9F335D00E2E3AF0E0E832D0B9
:101A300091505040E695001CCAF72BD0FE2F29D0BC
:101A4000660F771F881FBB1F261737074807AB078E
:101A5000B0E809F0BB0B802DBF01FF2793585F4F03
:101A60003AF09E3F510578F00C94EB0D0C94360E35
:101A70005F3FE4F3983ED4F3869577956795B795E5
:101A8000F7959F5FC9F7880F911D9695879597F9F0
:101A90000895E1E0660F771F881FBB1F6217730769
:101AA0008407BA0720F0621B730B840BBA0BEE1F7E
:101AB00088F7E09508950E941B0E88F09F5798F0D4
:101AC000B92F9927B751B0F0E1F0660F771F881F43
:101AD000991F1AF0BA95C9F714C0B13091F00E945D
:101AE000350EB1E008950C94350E672F782F8827B6
:101AF000B85F39F0B93FCCF3869577956795B39584
:101B0000D9F73EF490958095709561957F4F8F4FF2
:101B10009F4F0895E89409C097FB3EF490958095F7
:101B2000709561957F4F8F4F9F4F9923A9F0F92FA3
:101B300096E9BB279395F695879577956795B79521
:101B4000F111F8CFFAF4BB0F11F460FF1BC06F5F07
:101B50007F4F8F4F9F4F16C0882311F096E911C019
:101B6000772321F09EE8872F762F05C0662371F03A
:101B700096E8862F70E060E02AF09A95660F771F4E
:101B8000881FDAF7880F9695879597F90895990F2A
:101B90000008550FAA0BE0E8FEEF16161706E80737
:101BA000F907C0F012161306E407F50798F0621B58
:101BB000730B840B950B39F40A2661F0232B242B2D
:101BC000252B21F408950A2609F4A140A6958FEF4C
:101BD000811D811D089597F99F6780E870E060E09E
:101BE00008959FEF80EC089500240A9416161706B6
:101BF00018060906089500240A94121613061406FE
:101C000005060895092E0394000C11F4882352F060
:101C1000BB0F40F4BF2B11F460FF04C06F5F7F4F18
:101C20008F4F9F4F089557FD9058440F551F59F0FF
:101C30005F3F71F04795880F97FB991F61F09F3FB9
:101C400079F087950895121613061406551FF2CFE2
:101C50004695F1DF08C0161617061806991FF1CF32
:101C600086957105610508940895E894BB27662759
:101C70007727CB0197F908950E94C70D08F48FEFDD
:101C800008950E94540E0C94020E0E94F40D38F038
:101C90000E94FB0D20F0952311F00C94EB0D0C9499
:101CA000F10D11240C94360E0E94130E70F3959FC3
:101CB000C1F3950F50E0551F629FF001729FBB2743
:101CC000F00DB11D639FAA27F00DB11DAA1F649FDF
:101CD0006627B00DA11D661F829F2227B00DA11D92
:101CE000621F739FB00DA11D621F839FA00D611D18
:101CF000221F749F3327A00D611D231F849F600D39
:101D0000211D822F762F6A2F11249F5750409AF061
:101D1000F1F088234AF0EE0FFF1FBB1F661F771FED
:101D2000881F91505040A9F79E3F510580F00C94B8
:101D3000EB0D0C94360E5F3FE4F3983ED4F386959A
:101D400077956795B795F795E7959F5FC1F7FE2B58
:101D5000880F911D9695879597F908950E94C70D54
:101D6000880B990B0895A1E21A2EAA1BBB1BFD013B
:101D70000DC0AA1FBB1FEE1FFF1FA217B307E4076A
:101D8000F50720F0A21BB30BE40BF50B661F771FC2
:101D9000881F991F1A9469F76095709580959095A2
:101DA0009B01AC01BD01CF010895EE0FFF1F05900F
:0A1DB000F491E02D0994F894FFCFA0
:101DBA00010100000000005302B301E001A002117A
:101DCA0002EF010302000000006504380494040EC7
:101DDA000431041E040F04000000005F06B30194DE
:101DEA0004C0026E616E00696E66006F766600530B
:101DFA00797374656D205265616479004261636B21
:101E0A007570204D6173746572204F4E0043757270
:101E1A0072656E743A200020410053797374656DBF
:101E2A003A2052554E4E494E470054656D703A203D
:101E3A00002043004F76657263757272656E742175
:101E4A00004F766572686561742100537973746511
:101E5A006D3A2053544F50504544002020202020F2
:0C1E6A002020202020202020202020000C
:00000001FF
