:020000040000FA
:100000000C9458000C9480000C9480000C94800098
:100010000C9480000C9480000C9480000C94800060
:100020000C9480000C9480000C9480000C94800050
:100030000C9480000C9480000C9480000C94800040
:100040000C941D060C9480000C948D060C9467068D
:100050000C9480000C9480000C9480000C94800020
:100060000C94BF060C9480000000000025002800BE
:100070002B00040404040404040402020202020229
:10008000030303030303010204081020408001025C
:1000900004081020010204081020000000080002DB
:1000A0000100000304070000000000000000DE075C
:1000B00011241FBECFEFD8E0DEBFCDBF11E0A0E01E
:1000C000B1E0EAE6F7E102C005900D92A237B10770
:1000D000D9F722E0A2E7B1E001C01D92A83EB20725
:1000E000E1F710E0C8E5D0E004C02197FE010E94CE
:1000F000AD0BC735D107C9F70E9417080C94B30B95
:100100000C94000090E0FC01E656FF4F2491FC01A6
:10011000EA57FF4F3491FC01EE58FF4FE491EE2374
:10012000C9F0222339F0233001F1A8F4213019F16C
:10013000223029F1F0E0EE0FFF1FE859FF4FA591A3
:10014000B4918FB7F894EC91611126C030953E239D
:100150003C938FBF08952730A9F02830C9F0243090
:1001600049F7809180008F7D03C0809180008F7758
:1001700080938000DFCF84B58F7784BDDBCF84B5DB
:100180008F7DFBCF8091B0008F778093B000D2CF6E
:100190008091B0008F7DF9CF3E2BDACF3FB7F89436
:1001A0008091EB019091EC01A091ED01B091EE01F5
:1001B00026B5A89B05C02F3F19F00196A11DB11DC2
:1001C0003FBFBA2FA92F982F8827BC01CD01620FFE
:1001D000711D811D911D42E0660F771F881F991FB9
:1001E0004A95D1F708950895CF93DF93AC01E0913C
:1001F000DC01F091DD013097F1F09091DB0180910D
:10020000DA019817C0F090E0292F30E02617370761
:1002100054F4D901AE58BE4F240F351FE90128818F
:100220002C939F5FF1CF1092DB016093DA01CB0139
:10023000DF91CF910994DF91CF910895AF92BF9252
:10024000CF92DF92EF92FF920F931F93CF93DF93A2
:100250006C017B018B01040F151FEB015E01AE18D1
:10026000BF08C017D10759F06991D601ED91FC91F3
:100270000190F081E02DC6010995892B79F7C50120
:10028000DF91CF911F910F91FF90EF90DF90CF9072
:10029000BF90AF900895FC01538D448D252F30E021
:1002A000842F90E0821B930B541710F0CF96089583
:1002B00001970895FC01918D828D981761F0A28DB0
:1002C000AE0FBF2FB11D5D968C91928D9F5F9F7376
:1002D000928F90E008958FEF9FEF0895FC01918D2C
:1002E000828D981731F0828DE80FF11D858D90E099
:1002F00008958FEF9FEF0895FC01918D228D892F36
:1003000090E0805C9F4F821B91098F73992708951D
:100310008FE392E00E947C0121E0892B09F420E028
:10032000822F089580E090E0892B29F00E948801B7
:1003300081110C9400000895FC01A48DA80FB92F21
:10034000B11DA35ABF4F2C91848D90E001968F73FD
:100350009927848FA689B7892C93A089B1898C911C
:10036000837080648C93938D848D981306C002886B
:10037000F389E02D80818F7D80830895EF92FF9235
:100380000F931F93CF93DF93EC0181E0888F9B8DB8
:100390008C8D98131AC0E889F989808185FF15C072
:1003A0009FB7F894EE89FF896083E889F989808195
:1003B0008370806480839FBF81E090E0DF91CF9164
:1003C0001F910F91FF90EF900895F62E0B8D10E086
:1003D0000F5F1F4F0F731127E02E8C8D8E110CC0F5
:1003E0000FB607FCFACFE889F989808185FFF5CF40
:1003F000CE010E949C01F1CFEB8DEC0FFD2FF11D82
:10040000E35AFF4FF0829FB7F8940B8FEA89FB897C
:1004100080818062CFCFCF93DF93EC01888D8823DA
:10042000B9F0AA89BB89E889F9898C9185FD03C057
:10043000808186FD0DC00FB607FCF7CF8C9185FF3C
:10044000F2CF808185FFEDCFCE010E949C01E9CFE4
:10045000DF91CF9108952091B301260F3327331FE9
:1004600021323105ECF420911502FC0190E080E08E
:10047000243069F082E00895A091B3012191AC018C
:100480004D565E4FA40FB52FB11D2C9301968617C4
:1004900098F38091B301680F6093B30180E00895F1
:1004A00081E008951092150281E080931402109269
:1004B000EF0161E082E10E94820061E083E10E943D
:1004C0008200E9EBF0E080818E7F808380818D7FE8
:1004D000808388E48093B80085E48093BC0008950D
:1004E000CF93DF9391E0909392018823B9F0C0916C
:1004F000B800D091BA008091BC008A7B8093BC0088
:1005000060E082E10E94820060E083E10E9482005C
:100510000E945202D093BA00C093B800DF91CF91ED
:100520000895CF92DF92EF92FF920F931F93CF9394
:10053000DF93D0913E0281E0D13208F09CC0C0919F
:100540003D020E94CE006B017C0180911502811159
:100550006CC082E08093150281E0809314028FEFDB
:100560008093130210921202D0931102ADE1B2E017
:10057000E1EFF1E080E0D8138DC01092F00180919E
:10058000F001CC0FC82BC093F0018091EF018130B6
:1005900009F084C01092EF010E94CE006B017C0133
:1005A0008091F0018093BB00809117029091180216
:1005B000A0911902B0911A02892B8A2B8B2BA1F0E2
:1005C0000E94CE000091170210911802209119028A
:1005D00030911A026C197D098E099F0906171707B9
:1005E0002807390708F442C08091BC0083FDD8CFAA
:1005F00085EC8093BC000E94CE006B017C01809151
:100600001502823009F44CC0809113028F3F09F427
:1006100069C080911302803209F466C08091130290
:10062000803309F463C084E026C080911702909162
:100630001802A0911902B0911A02892B8A2B8B2BD8
:1006400009F483CF0E94CE00009117021091180286
:100650002091190230911A026C197D098E099F09A7
:10066000061717072807390708F06FCF8091160281
:100670000E94700285E010921C0210923E021092BD
:100680001B02DF91CF911F910F91FF90EF90DF90B0
:10069000CF9008959D9191938F5F6DCF85EEA9CFF7
:1006A0008091170290911802A0911902B0911A023C
:1006B000892B8A2B8B2B09F4A2CF0E94CE000091AC
:1006C0001702109118022091190230911A026C1928
:1006D0007D098E099F09061717072807390708F0B3
:1006E0008ECFC4CF80E0C7CF82E0C5CF83E0C3CF39
:1006F0000895E091DB018091DA01E81730F4F0E031
:10070000EE58FE4F808190E008958FEF9FEF08959F
:100710009091DB018091DA012FEF3FEF981748F4B9
:10072000E92FF0E0EE58FE4F208130E09F5F90937C
:10073000DB01C90108958091DA019091DB01891BE9
:10074000990B0895CF92DF92EF92FF920F931F9330
:10075000CF93DF937C01CB018A0120911B022223DE
:1007600089F0EB016B01C40ED51ECC15DD0569F0D7
:100770006991D701ED91FC910190F081E02DC701C5
:100780000995F3CF642F0E942B02C801DF91CF910E
:100790001F910F91FF90EF90DF90CF900895CF932E
:1007A000DF931F92CDB7DEB7698320911B0222230E
:1007B000F9F020913E02203258F021E030E0FC01B7
:1007C0003383228390E080E00F90DF91CF910895F2
:1007D00080911C02E82FF0E0E35EFD4F9981908349
:1007E0008F5F80931C0280933E0281E090E0ECCF0B
:1007F00061E0CE0101960E942B02F7CF90E080E0ED
:100800000895FC0101900020E9F73197AF01481BE2
:10081000590BBC018FE392E00C941E018F929F92C2
:10082000AF92BF920F931F93CF93DF93CDB7DEB7F5
:10083000A1970FB6F894DEBF0FBECDBF19A242300C
:1008400008F44AE08E010F5D1F4F842E912CB12CCD
:10085000A12CA50194010E948B0BE62FB901CA01BE
:10086000EA30F4F4E05DD801EE938D01232B242BC4
:10087000252B79F790E080E0109719F0CD010E94C8
:100880000104A1960FB6F894DEBF0FBECDBFDF9175
:10089000CF911F910F91BF90AF909F908F9008952F
:1008A000E95CE1CFCF93DF930E940104EC0184E285
:1008B00091E00E9401048C0F9D1FDF91CF9108955C
:1008C0004F925F926F927F928F929F92AF92BF9260
:1008D000CF92DF92EF92FF92CF93DF936B017C0177
:1008E000942EAC019B010E94860B882391F087E235
:1008F00091E0DF91CF91FF90EF90DF90CF90BF908C
:10090000AF909F908F907F906F905F904F900C94DE
:10091000010426013701E89477F82FEF3FEF4FE706
:100920005FE7C301B2010E94860B81110DC02FEF5A
:100930003FEF4FE75FE7C301B2010E94BC09181601
:100940001CF48BE291E0D5CF2FEF3FEF4FE75FE450
:10095000C701B6010E94140B18161CF48FE291E037
:10096000C8CF2FEF3FEF4FE75FECC701B6010E9402
:10097000BC0987FDF3CF20E030E0A901C701B60133
:100980000E94BC09B12CA12C87FF0AC06DE28FE345
:1009900092E00E94BE015C01F7FAF094F7F8F0943F
:1009A000C92D60E070E080E09FE3D0E020E030E01F
:1009B00040E251E40E94C10921E02D0FD1E0291548
:1009C000A8F3A70196010E9450092B013C010E9447
:1009D000330A6B017C010E94620A9B01AC01C301D6
:1009E000B2010E944F092B013C014AE0C701B60148
:1009F0000E940E047C016EE28FE392E00E94BE0131
:100A0000E80EF91EEA0CFB1CC15018F120E030E0A2
:100A100040E251E4C301B2010E94190B2B013C01D9
:100A20000E94330A4B01B12CA12C4AE0C501B4014C
:100A30000E940E04E80EF91EC501B4010E94620A6C
:100A40009B01AC01C301B2010E944F092B013C0183
:100A5000DBCFC701DF91CF91FF90EF90DF90CF9078
:100A6000BF90AF909F908F907F906F905F904F90CE
:100A700008958F929F92AF92BF92CF92DF92EF92A2
:100A8000FF92CF938091DA019091DB01891B990B42
:100A900005970CF490C08CED92E00E948803C82F5B
:100AA0008CED92E00E948803C82E8CED92E00E94AB
:100AB0008803D82E8CED92E00E948803E82E8CEDFE
:100AC00092E00E948803F82E60E07C2D6D2990E072
:100AD00080E00E94620A20E030E048EC52E40E948C
:100AE000C1094B015C0160E07E2D6F2990E080E040
:100AF0000E94620A20E030E040E251E40E94C10915
:100B00006B017C012FB7F8948091E7019091E80187
:100B1000A091E901B091EA012FBFC93091F5409150
:100B2000E2015091E3016091E4017091E501841BC1
:100B3000950BA60BB70B883E9340A105B105D8F5E0
:100B400083E391E00E94010442E050E0C501B4015A
:100B50000E94600484E491E00E94010441E050E0BE
:100B6000C701B6010E9460048FE491E0CF91FF902D
:100B7000EF90DF90CF90BF90AF909F908F900C94AC
:100B80005204C830C1F4885E9340A109B109409174
:100B9000DE015091DF016091E0017091E101841B61
:100BA000950BA60BB70B883E9340A105B10518F431
:100BB00082E591E0C7CFCF91FF90EF90DF90CF908B
:100BC000BF90AF909F908F90089585ED8093BC006B
:100BD0008091170290911802A0911902B0911A0207
:100BE0000796A11DB11D23E0B695A795979587950A
:100BF0002A95D1F72091BC0024FD03C01092150264
:100C00000895409117025091180260911902709155
:100C10001A02452B462B472B69F30097A105B10516
:100C200041F02AE22A95F1F700C00197A109B10924
:100C3000E1CF809116020C9470021F920F920FB6B2
:100C40000F9211242F933F938F939F93AF93BF9352
:100C50008091E7019091E801A091E901B091EA014A
:100C60003091E60123E0230F2D3758F50196A11DA1
:100C7000B11D2093E6018093E7019093E801A093D2
:100C8000E901B093EA018091EB019091EC01A09110
:100C9000ED01B091EE010196A11DB11D8093EB0114
:100CA0009093EC01A093ED01B093EE01BF91AF9151
:100CB0009F918F913F912F910F900FBE0F901F909A
:100CC000189526E8230F0296A11DB11DD2CF1F92C1
:100CD0000F920FB60F9211242F933F934F935F9370
:100CE0006F937F938F939F93AF93BF93EF93FF93F4
:100CF0008FE392E00E949C01FF91EF91BF91AF9131
:100D00009F918F917F916F915F914F913F912F9123
:100D10000F900FBE0F901F9018951F920F920FB655
:100D20000F9211242F938F939F93EF93FF93E09152
:100D30004F02F09150028081E0915502F0915602ED
:100D400082FD1BC09081809158028F5F8F7320912C
:100D50005902821741F0E0915802F0E0E15CFD4F4A
:100D6000958F80935802FF91EF919F918F912F91D2
:100D70000F900FBE0F901F9018958081F4CF1F9297
:100D80000F920FB60F9211242F933F934F935F93BF
:100D90006F937F938F939F93AF93BF93EF93FF9343
:100DA0008091B900887F803609F44AC0F0F5883216
:100DB00009F4A7C018F5803109F49BC0B8F4882362
:100DC00009F4F9C0883009F494C0FF91EF91BF9104
:100DD000AF919F918F917F916F915F914F913F91D3
:100DE0002F910F900FBE0F901F901895883109F426
:100DF00088C0803251F78093130214C0803409F404
:100E00009DC040F48033B9F38833F9F68093130220
:100E100085ECB0C0803509F485C0883509F496C0EA
:100E2000883499F60E94E505D0CF883909F48CC042
:100E300038F5883729F050F4883611F0803729F6D4
:100E400083E0809315021092D50157C0883809F4C9
:100E50007BC0803919F0803809F0B7CF8091D50177
:100E6000803208F071C0E091D50181E08E0F80934F
:100E7000D5018091BB00F0E0EB54FE4F80833DC074
:100E8000803B39F0E0F4803A09F479C0883A09F0FF
:100E90009CCF84E0809315021092B4011092B301AC
:100EA000E091D801F091D90109958091B3018111A8
:100EB0000FC081E08093B3011092930109C0803C80
:100EC00009F4A6CF883C09F4A3CF883B09F07DCF75
:100ED000E091B40181E08E0F8093B401F0E0ED5613
:100EE000FE4F80818093BB009091B4018091B3014B
:100EF00029C08091F0018093BB0085EC8093BC00F9
:100F000064CF9091120280911102981758F5E091E8
:100F1000120281E08E0F80931202F0E0EF50FE4F3C
:100F20008081E9CFE091120281E08E0F809312025E
:100F30008091BB00F0E0EF50FE4F80839091120251
:100F4000809111029817C8F285E8D8CFE09112027B
:100F500081E08E0F809312028091BB00F0E0EF5091
:100F6000FE4F80838091140281115CCF81E08093D9
:100F7000EF0184EA8093BC001092150226CF85EC25
:100F80008093BC00109215028091D501803230F41C
:100F9000E091D501F0E0EB54FE4F10826091D50155
:100FA00070E0E091D601F091D70185EB91E00995D1
:100FB0001092D5010ACF1092130234CFEFE3F2E082
:100FC0001382128288EE93E0A0E0B0E084839583E0
:100FD000A683B78324E031E03183208325EC30E021
:100FE0003587248724EC30E03787268720EC30E0F3
:100FF000318B208B21EC30E0338B228B22EC30E0E4
:10100000358B248B26EC30E0378B268B118E128E9D
:10101000138E148EECEDF2E013821282848395839A
:10102000A683B78386E191E09183808308957894C5
:1010300084B5826084BD84B5816084BD85B58260DD
:1010400085BD85B5816085BD80916E00816080938E
:101050006E001092810080918100826080938100F7
:101060008091810081608093810080918000816007
:10107000809380008091B10084608093B100809162
:10108000B00081608093B00080917A00846080938A
:101090007A0080917A00826080937A0080917A0051
:1010A000816080937A0080917A00806880937A00D2
:1010B0001092C1001092DB011092DA0110921C0212
:1010C00010923E020E94520283EF90E09093D90169
:1010D0008093D80184EF90E09093D7018093D6015C
:1010E0001092BA0089E395E09093DD018093DC01D2
:1010F000E0914F02F091500282E08083E0914B0238
:10110000F0914C021082E0914D02F0914E028FEC72
:10111000808310925702E0915302F091540286E0CE
:101120008083E0915102F09152028081806180833E
:10113000E0915102F0915202808188608083E091B9
:101140005102F0915202808180688083E0915102C7
:10115000F091520280818F7D808382E691E00E942F
:10116000520411E009E098E0B92EC0E0D0E08FB75A
:10117000F894C090E701D090E801E090E901F09088
:10118000EA018FBF10931B0200933D0210921C02D4
:1011900010923E0261E08CED92E00E94CF030E942B
:1011A000910210931B02B0923D0210921C02109209
:1011B0003E0261E08CED92E00E94CF030E9491021A
:1011C0008091E2019091E301A091E401B091E501E9
:1011D000A7019601281B390B4A0B5B0BDA01C901E9
:1011E000883E9340A105B10540F0C092E201D09243
:1011F000E301E092E401F092E5018091DE0190913B
:10120000DF01A091E001B091E101A7019601281B47
:10121000390B4A0B5B0BDA01C901803D9740A105F0
:10122000B10570F048EEC41A43E0D40AE108F108B1
:10123000C092DE01D092DF01E092E001F092E10184
:101240000E94CE002B013C0184E6C82ED12CE12C5B
:10125000F12C0E94CE006419750986099709683E31
:10126000734081059105A8F351E0C51AD108E10842
:10127000F10888EE480E83E0581E611C711CC114F1
:10128000D104E104F10429F7209709F470CF0E94FA
:101290008801882309F46BCF0E94000068CF505862
:1012A000BB27AA270E9467090C94DA0A0E94CC0A7D
:1012B00038F00E94D30A20F039F49F3F19F426F445
:1012C0000C94C90A0EF4E095E7FB0C94C30AE92FCD
:1012D0000E94EB0A58F3BA17620773078407950751
:1012E00020F079F4A6F50C940D0B0EF4E0950B2E7E
:1012F000BA2FA02D0B01B90190010C01CA01A00168
:101300001124FF27591B99F0593F50F4503E68F1C2
:101310001A16F040A22F232F342F4427585FF3CF03
:10132000469537952795A795F0405395C9F77EF4D4
:101330001F16BA0B620B730B840BBAF09150A1F01D
:10134000FF0FBB1F661F771F881FC2F70EC0BA0FA3
:10135000621F731F841F48F4879577956795B7952B
:10136000F7959E3F08F0B0CF9395880F08F0992726
:10137000EE0F9795879508950E949F0A08F481E0E3
:1013800008950E94D5090C94DA0A0E94D30A58F0F5
:101390000E94CC0A40F029F45F3F29F00C94C30A64
:1013A00051110C940E0B0C94C90A0E94EB0A68F3BD
:1013B0009923B1F3552391F3951B550BBB27AA270E
:1013C00062177307840738F09F5F5F4F220F331F48
:1013D000441FAA1FA9F335D00E2E3AF0E0E832D010
:1013E00091505040E695001CCAF72BD0FE2F29D013
:1013F000660F771F881FBB1F261737074807AB07E5
:10140000B0E809F0BB0B802DBF01FF2793585F4F59
:101410003AF09E3F510578F00C94C30A0C940E0BE1
:101420005F3FE4F3983ED4F3869577956795B7953B
:10143000F7959F5FC9F7880F911D9695879597F946
:101440000895E1E0660F771F881FBB1F62177307BF
:101450008407BA0720F0621B730B840BBA0BEE1FD4
:1014600088F7E09508950E94F30A88F09F5798F056
:10147000B92F9927B751B0F0E1F0660F771F881F99
:10148000991F1AF0BA95C9F714C0B13091F00E94B3
:101490000D0BB1E008950C940D0B672F782F882762
:1014A000B85F39F0B93FCCF3869577956795B395DA
:1014B000D9F73EF490958095709561957F4F8F4F49
:1014C0009F4F0895E89409C097FB3EF4909580954E
:1014D000709561957F4F8F4F9F4F9923A9F0F92FFA
:1014E00096E9BB279395F695879577956795B79578
:1014F000F111F8CFFAF4BB0F11F460FF1BC06F5F5E
:101500007F4F8F4F9F4F16C0882311F096E911C06F
:10151000772321F09EE8872F762F05C0662371F090
:1015200096E8862F70E060E02AF09A95660F771FA4
:10153000881FDAF7880F9695879597F90895990F80
:101540000008550FAA0BE0E8FEEF16161706E8078D
:10155000F907C0F012161306E407F50798F0621BAE
:10156000730B840B950B39F40A2661F0232B242B83
:10157000252B21F408950A2609F4A140A6958FEFA2
:10158000811D811D089597F99F6780E870E060E0F4
:1015900008959FEF80EC089500240A94161617060C
:1015A00018060906089500240A9412161306140654
:1015B00005060895092E0394000C11F4882352F0B7
:1015C000BB0F40F4BF2B11F460FF04C06F5F7F4F6F
:1015D0008F4F9F4F089557FD9058440F551F59F056
:1015E0005F3F71F04795880F97FB991F61F09F3F10
:1015F00079F087950895121613061406551FF2CF39
:101600004695F1DF08C0161617061806991FF1CF88
:1016100086957105610508940895E894BB276627AF
:101620007727CB0197F908950E949F0A08F48FEF5E
:1016300008950E942C0B0C94DA0A0E94CC0A38F010
:101640000E94D30A20F0952311F00C94C30A0C9445
:10165000C90A11240C940E0B0E94EB0A70F3959F9B
:10166000C1F3950F50E0551F629FF001729FBB2799
:10167000F00DB11D639FAA27F00DB11DAA1F649F35
:101680006627B00DA11D661F829F2227B00DA11DE8
:10169000621F739FB00DA11D621F839FA00D611D6E
:1016A000221F749F3327A00D611D231F849F600D8F
:1016B000211D822F762F6A2F11249F5750409AF0B8
:1016C000F1F088234AF0EE0FFF1FBB1F661F771F44
:1016D000881F91505040A9F79E3F510580F00C940F
:1016E000C30A0C940E0B5F3FE4F3983ED4F3869547
:1016F00077956795B795F795E7959F5FC1F7FE2BAF
:10170000880F911D9695879597F908950E949F0AD5
:10171000880B990B0895A1E21A2EAA1BBB1BFD0191
:101720000DC0AA1FBB1FEE1FFF1FA217B307E407C0
:10173000F50720F0A21BB30BE40BF50B661F771F18
:10174000881F991F1A9469F76095709580959095F8
:101750009B01AC01BD01CF010895EE0FFF1F059065
:10176000F491E02D0994F894FFCF00000000BE0131
:101770001E014B010B027C015A016E0100000000AA
:10178000CF03A203FE0378039B03880379030D0AAA
:10179000006E616E00696E66006F7666004261637E
:1017A0006B75702043757272656E743A200020412B
:1017B0002C2054656D703A2000204300536C6176F4
:1017C000652043757272656E743A20004D617374C2
:0C17D0006572205374617274656400003F
:107E0000112484B714BE81FFF0D085E080938100F7
:107E100082E08093C00088E18093C10086E0809377
:107E2000C20080E18093C4008EE0C9D0259A86E02C
:107E300020E33CEF91E0309385002093840096BBD3
:107E4000B09BFECF1D9AA8958150A9F7CC24DD24C4
:107E500088248394B5E0AB2EA1E19A2EF3E0BF2EE7
:107E6000A2D0813461F49FD0082FAFD0023811F036
:107E7000013811F484E001C083E08DD089C08234E0
:107E800011F484E103C0853419F485E0A6D080C0E4
:107E9000853579F488D0E82EFF2485D0082F10E0AE
:107EA000102F00270E291F29000F111F8ED06801E7
:107EB0006FC0863521F484E090D080E0DECF843638
:107EC00009F040C070D06FD0082F6DD080E0C81688
:107ED00080E7D80618F4F601B7BEE895C0E0D1E017
:107EE00062D089930C17E1F7F0E0CF16F0E7DF06D8
:107EF00018F0F601B7BEE89568D007B600FCFDCFD4
:107F0000A601A0E0B1E02C9130E011968C91119780
:107F100090E0982F8827822B932B1296FA010C0160
:107F200087BEE89511244E5F5F4FF1E0A038BF0790
:107F300051F7F601A7BEE89507B600FCFDCF97BE46
:107F4000E89526C08437B1F42ED02DD0F82E2BD052
:107F50003CD0F601EF2C8F010F5F1F4F84911BD097
:107F6000EA94F801C1F70894C11CD11CFA94CF0C13
:107F7000D11C0EC0853739F428D08EE10CD085E9AC
:107F80000AD08FE07ACF813511F488E018D01DD067
:107F900080E101D065CF982F8091C00085FFFCCF94
:107FA0009093C60008958091C00087FFFCCF809118
:107FB000C00084FD01C0A8958091C6000895E0E648
:107FC000F0E098E1908380830895EDDF803219F02E
:107FD00088E0F5DFFFCF84E1DECF1F93182FE3DFCA
:107FE0001150E9F7F2DF1F91089580E0E8DFEE27F6
:047FF000FF270994CA
:027FFE00040479
:00000001FF
